:020000040800F2
:100000008021002005220008D15A0008D9210008CB
:10001000D9210008D9210008D921000800000000DA
:10002000000000000000000000000000ED1E0008BD
:10003000D921000800000000991E0008F5330008CF
:100040009D1F00089D1F00089D1F00089D1F0008A0
:100050009D1F00089D1F00089D1F00089D1F000890
:100060009D1F00089D1F00089D1F00089D1F000880
:100070009D1F00089D1F00089D1F00089D1F000870
:100080009D1F00089D1F00089D1F00089D1F000860
:100090009D1F00089D1F00089D1F00089D1F000850
:1000A0009D1F00089D1F00089D1F00089D1F000840
:1000B0009D1F00089D1F00089D1F00089D1F000830
:1000C0009D1F00089D1F00089D1F00089D1F000820
:1000D0009D1F00089D1F00089D1F00089D1F000810
:1000E0009D1F00089D1F00089D1F00089D1F000800
:1000F0009D1F00089D1F00089D1F00089D1F0008F0
:100100009D1F00089D1F00089D1F00089D1F0008DF
:100110009D1F00089D1F00089D1F00089D1F0008CF
:100120009D1F00089D1F00089D1F00089D1F0008BF
:100130009D1F00089D1F00089D1F00089D1F0008AF
:100140009D1F00089D1F00089D1F00089D1F00089F
:100150009D1F00089D1F00089D1F00089D1F00088F
:100160009D1F00089D1F00089D1F00089D1F00087F
:100170009D1F00089D1F00089D1F00089D1F00086F
:100180009D1F00089D1F00089D1F00089D1F00085F
:040190009D1F0008A7
:1001940053B94AB9002908BF00281CBF4FF0FF31EA
:1001A4004FF0FF3000F00CB8ADF1080C6DE904CE4F
:1001B40000F008F8DDF804E0DDE9022304B070473C
:1001C400704700BF2DE9F04786468C460846089ED6
:1001D400154674461946002B40F0C2808542B2FA97
:1001E40082F245D94AB1C2F1200300FA02FC2EFA88
:1001F40003F3954043EA0C0C94404FEA154EA8B221
:10020400BCFBFEF8230C0EFB18CC08FB00F943EAF8
:100214000C43994528D9EB1808F1FF3704D29945C6
:1002240002D9A8F102072B44A3EB0903A4B2B3FB40
:10023400FEFC0EFB1C330CFB00F044EA0344A0421A
:1002440014D92C190CF1FF3304D2A04202D9ACF119
:1002540002032C44241A43EA07401EB1D44000236D
:1002640034607360BDE8F0874746DDE76346F1E735
:1002740092BB431B01214FEA154EAFB2B3FBFEFC08
:10028400200C0EFB1C330CFB07F840EA0343984593
:1002940062D9EB180CF1FF3004D2984502D9ACF1C5
:1002A40002002B44A3EB0803A4B2B3FBFEFC0EFB39
:1002B4001C330CFB07F744EA0344A7424ED92C191C
:1002C4000CF1FF3304D2A74202D9ACF102032C444F
:1002D400E41B43EA0040C0E7C2F1200320FA03F123
:1002E400954090402EFA03F303434FEA154EAFB204
:1002F400B1FBFEFC0EFB1C10190C0CFB07F841EAC9
:100304000041884504FA02F422D969180CF1FF303F
:1003140004D2884502D9ACF102002944A1EB0801BA
:100324009BB2B1FBFEFC0EFB1C110CFB07F743EA6E
:1003340001439F420ED9EB180CF1FF3104D29F42C6
:1003440002D9ACF102012B44DB1B41EA004192E7E4
:100354006046E3E76146F7E76046A3E76346B7E72D
:10036400834206D916B9002108467BE7C6E900E0B6
:10037400F9E7B3FA83F78FB9834201D3724508D8FA
:10038400BEEB020460EB030301209C461EB900216E
:1003940068E73846FAE7C6E9004CF8E7C7F1200CED
:1003A400BB4022FA0CF41C432EFA0CF120FA0CF395
:1003B400B84001434FEA14490EFA07F5B3FBF9F8C4
:1003C4001FFA84FE09FB18300B0C08FB0EFA43EAF3
:1003D40000439A4502FA07F240D9E31808F1FF30C6
:1003E40004D29A4502D9A8F102002344A3EB0A03DC
:1003F40089B2B3FBF9F809FB183308FB0EFE41EA96
:1004040003418E452CD9611808F1FF3304D28E457F
:1004140002D9A8F10203214443EA0040A0FB029858
:10042400A1EB0E014145CE46434602D306D14D45CC
:1004340004D2B9EB020E68EB04030138002EA6D0F7
:10044400B5EB0E0261EB030101FA0CFC22FA07F38F
:100454004CEA0303F940C6E9003198E74046C5E792
:100464004346D9E737B50020019000F06DFFD8B9B5
:100474000E4C019B5BB10E4D0E4C2946204605F0F7
:1004840090F8002142F2107004F066FEF5E7A368CC
:100494001B6D1BB101AA04212046984700214FF48B
:1004A4007A7004F059FEE4E703B030BDDC73000851
:1004B4002A7A00082E7A0008014B1B68184700BFEF
:1004C40000000020014B1860704700BF00000020AE
:1004D40007B50B46002102460091034800F006F8D8
:1004E40003B05DF804FB00BFBD0400082DE9F04F24
:1004F400814695B08B4617461C460025387808B9C6
:10050400284658E37B1C2528039306D05946C84740
:100514000028C0F250830135FBE1182200210EA807
:1005240005F00AFB7B78252B7DD00023781C9846A8
:100534009E469C461E46014610F8012B2B2A00F0CD
:10054400A18000F29880202A00F09F80232A00F0E6
:100554009F802BB19DF8403043F040038DF840302C
:10056400B8F1000F05D09DF8403043F020038DF81A
:100574004030BEF1000F05D09DF8403043F0100329
:100584008DF84030BCF1000F05D09DF8403043F0A9
:1005940008038DF840302EB19DF8403043F0040339
:1005A4008DF840309DF8403003F04400442803D1D6
:1005B4006FF386138DF840309DF840302A2A43F0BB
:1005C40080038DF840307FD19DF8412042F0010234
:1005D4004B1C8DF841201A782E2A9DF841200CBF1F
:1005E4000121002161F341028DF8412078D15A782C
:1005F4002A2A6ED0013300224FF00A0C194611F852
:10060400010BA0F13006092E40F295809DF84010B0
:100614001292C1F3400040EAD2700A4660F34102EC
:100624008DF840205CE0BA1C03928DF843309DF8AD
:100634004130DA0740F12E8154F8048BB8F1000FF1
:1006440007DA9DF8402042F004028DF84020C8F1FA
:1006540000085E0740F1278154F804ABBAF1000F9B
:1006640080F226819DF841306FF341038DF84130CB
:100674004FF0FF3A1CE12D2A0DD0302A7FF469AFE8
:10068400012358E74FF0010C55E74FF0010E52E7F4
:100694004FF001084FE701264DE70EFB0262303AA6
:1006A4000346184610F8016BA6F1300CBCF1090F93
:1006B400F3D999428FD09DF840101192D20F62F372
:1006C40041018DF8401086E70B4600224FF00A0ED8
:1006D400E7E79DF8412042F004028DF841200233FF
:1006E4001A786C2A47D02BD8682A31D06A2A4BD082
:1006F4004C2A51D01A4612F8013B0392782B9DF8EC
:1007040041208DF8433000F2BE806D2B51D8692B07
:1007140000F2B980572B67D8412B03D0453B022BFD
:1007240000F2B1809DF84230042262F302038DF896
:100734004230012373E00CFB0202303A0B465DE7C2
:10074400742A25D07A2AD5D19DF8412006210CE0BF
:100754005A78682A9DF8412006D1012161F3C60226
:100764008DF841200233C5E7022161F3C6028DF8FA
:1007740041200133BEE75A786C2A9DF8412001D10B
:100784000421EBE70321F0E79DF841200521ECE784
:100794009DF841200721E8E7BDF8402022F4F0420B
:1007A40022F0020242F4804242F00202ADF84020FC
:1007B400DFE76E3BD9B201238B4040F282410B420A
:1007C40037D113F0240F51D1D8075CD59DF84230AE
:1007D400032161F302038DF8423002F07803A3F1A0
:1007E40040014B424B411AE0A3F15801C9B2012028
:1007F40000FA01F111F4624F94D140F6010631423E
:100804001DD111F4043F3ED09DF8423060F3020341
:1008140002F07802402A8DF8423034D000239DF84B
:100824004020C2F340010B4363F341028DF84020A2
:10083400FDE69DF84230022161F30203E8E79DF8EA
:100844004210022002F0780260F30201402A8DF87F
:10085400421002BF9DF8401041F001018DF8401094
:10086400632BDBD1131E18BF0123D8E79DF8423058
:10087400032161F3020312F0780F8DF8423014BFA4
:1008840001230023CBE79DF8403043F001038DF8AA
:100894004030C3E79DF94020002AB4BFDDF844800E
:1008A4004FF0FF38D5E698077FF5E2AEDDF848A0B3
:1008B4009DF841100023CDE911339DF8423003F037
:1008C4000703012BC1F3C30133D1CB1E042B04D87E
:1008D400DFE803F0214646212100236801294FEA7D
:1008E400E372CDE90E321CD19DF93830DA17CDE927
:1008F4000E3204349DF8403013F0030650D0039BAD
:100904003A465946484604F0A9FE0028C0F25381ED
:100914000544039FF2E554F8043BDA17CDE90E329F
:10092400E8E70229E5D11AB243F3C033CDE90E2337
:10093400DFE7022B24D1CB1E042B04D8DFE803F01D
:10094400181010181800012954F8043B4FF0000245
:1009540014D00229CDE90E32CCD19BB20E93C9E753
:10096400073424F00704F4E80223CDE90E23C1E799
:1009740054F8043B0E9300230F93BBE7DBB2CDE79F
:10098400042B08D1073424F00704D4E900230834E5
:10099400CDE90E23AEE7032BACD154F8043BDDE7DD
:1009A4009DF843007828B4D862281CD825283FF441
:1009B400ADAD5828ADD10DF136030093DDE90E013C
:1009C40008AB10AA04F004FEBAF1000F074680F247
:1009D4009A80002F9DD00DF13603D81B002E00F015
:1009E400C1800130BEE06338152892D801A252F8C4
:1009F40020F000BFCD0A0008DF0A0008170900082C
:100A0400170900081709000817090008DF0A000879
:100A14001709000817090008170900081709000832
:100A24006D0B0008050B00082B0B000817090008C4
:100A340017090008510A000817090008050B0008E7
:100A44001709000817090008050B0008BAF1000F80
:100A54000E9F35DB5146384605F046F807EB000A91
:100A6400002F3FF456AF00269DF8423013F01002D9
:100A7400059200F0938002305B06119A48BF129BE6
:100A84000492104448BFC018B8F1000F40F3A0808E
:100A94009DF84020A8EB0008C2F38003500706939A
:100AA40000F19680510640F189803EB159463046A6
:100AB400C84700287FDB069B01351E4630227EE0B6
:100AC400384605F00AF8C9E70E9B8DF82030002659
:100AD40008AF0DF1210A0120C6E719075CBFC3F373
:100AE40000135E01DDE90E2348BF2B26002BBFF661
:100AF40062AF524263EB4303CDE90E232D265AE73E
:100B0400002658E700269DF840200DF13603DB1B34
:100B14006FF386129A458DF840207FF65AAFAAEB00
:100B24000303119355E70E9890B30DF13603009328
:100B340010AA08AB002104F04BFDBDF8423003F0CD
:100B4400EF0343F4F04343F01003BAF1000F0746F8
:100B5400ADF84230D6DA00283FF4DBAE0DF13603AF
:100B6400181A00269A467FE70E9B07293FF6D1AE56
:100B7400DFE801F00C04060C08080C0C1D70C8E634
:100B84001D80C6E6EA17C3E90052C2E61D60C0E64E
:100B94002E4F064607F1050A052065E71A0748BFE8
:100BA400013069E70793104606925946C847002862
:100BB400DDE9062304DA15B0BDE8F08F20224346B0
:100BC4001946002903F1FF33ECDC45446D1A9846BD
:100BD4002EB159463046C8470028ECDB01359DF854
:100BE4004230DA0601D41B0705D559463020C847E0
:100BF4000028E0DB0135059B33B19DF843005946DD
:100C0400C8470028D7DB0135049E2E4405E0594629
:100C14003020C8470028CEDB0135731B002BF6DCDF
:100C240053463A465946484604F018FD0028C2DBAC
:100C34000544A844A8EB0503002B7FF76AAE594688
:100C44002020C8470028B6DB0135F3E7407A0008C6
:100C54000C4B1A6842F400721A601A6842F48062FB
:100C64001A604FF01002EFF3118382F31288BFF37E
:100C74006F8F83F31188BFF36F8F034B034A1A609E
:100C840000207047003C02406C0100200024F40066
:100C9400F0B40C4B0C4E5F6A0C4BB34203D36FF0B1
:100CA4008500F0BC70475D68BD4209D31C693CB146
:100CB40095F802C00579AC4502D12346F0BC18472B
:100CC4002433EAE7D00400208802002064020020D4
:100CD4002DE9F047134CDFF85080DFF850900546BB
:100CE4000E461746444503D36FF08500BDE8F087F0
:100CF4006268D9F824309A4212D3A36983B19078F8
:100D04002979884205D13A4631462846BDE8F0475C
:100D140018475279012A03D13A4631462846984762
:100D24002434DFE76402002088020020D00400207D
:100D34002DE9F0410B4CDFF8308005460E4617468E
:100D4400444502D36FF0850009E063690BB924348C
:100D5400F6E73A463146284698470028F7D1BDE8D9
:100D6400F08100BF640200208802002007B5837868
:100D74008DF800300379427943EA0223ADF802305A
:100D8400C378684603F003038DF8043004F06BFF66
:100D940010F1780F04D018B1002003B05DF804FB03
:100DA4009DF8000001F0C6FC10F1780F01D0002876
:100DB400F2D1024B012083F8B900EEE7D004002001
:100DC40002480822002104F0B7BE00BF8B050020B2
:100DD40070B50B4B0B4CA34201D3002070BD196AB4
:100DE4001E7F00220439D5B2AE4201D82433F2E783
:100DF400013211F832508542F5D10120EEE700BFEF
:100E0400640200208802002008B509480378C3F36F
:100E140041130A3350F823303BB100F1080200F1CA
:100E240010019847C043C00F08BD1846FCE700BF37
:100E3400D004002004282DE9F047DFF88C80044614
:100E44000E4613D1FFF7BCFF204B93F8B930ABB17A
:100E540000F06AFD1E4D454526D2D5F820900027A6
:100E64002A7FFBB29A4217D82435F4E7052810D11B
:100E7400164B93F8B9300BB100F056FD144D4545AF
:100E840017D3124B1B6AE3B131462046BDE8F04745
:100E940018470128F2D1D7E709EBC30301371879C2
:100EA40001F06AFC0028DBDA084B002283F8B92041
:100EB400E4E7EB681BB132462146284698472435BF
:100EC400DDE7BDE8F08700BF88020020D0040020E1
:100ED4006402002073B5C4B263060D468DF8074062
:100EE40007D02046FFF774FF78B10D4B93F8BA0092
:100EF40058B10B4E204655B101F0F0FBF3691BB11C
:100F04000DF1070108209847012002B070BD01F0DF
:100F1400FBFBF369002BF7D00DF107010920F2E781
:100F2400D00400202DE9F047934DAB6904460E46EA
:100F34001746C3B9207800F01F00012876D0022894
:100F440000F0DF8000BB94F900103A686378002950
:100F54002EDA062B0CD0082B25D0ABB95370012305
:100F64001370022306E198470028E3D100200DE026
:100F740063881A0A111F0129944605D9072A03D840
:100F8400D9B26B6A1C781CB96FF01500BDE8F08704
:100F94005D78654503D1814200F0E7800130234448
:100FA400F0E71B78E6E095F8BA3013700123E1E02E
:100FB400052B11D0092BE7D163886E6A002B32D13F
:100FC400FFF7FEFE638885F8BA30EB69002BCDD0BD
:100FD4006A4903209847C9E7A07801F03FFB00283D
:100FE400C4D0D1E77378042B10D0052B11D0022B79
:100FF40004D177796388BB4208BF012033781E444B
:101004003378002BEED10028BED0D9E796F80380C0
:10101400F4E76388BB42F1D1B8F1000FEED130465A
:10102400FFF7A4FEEAE7FF27B846E9E795F8BA30E8
:10103400D7F800C0002BA7D06F6AA28894F804E008
:101044003B46187800289FD05978022904D193F898
:101054000480F04500F294800344F2E78CF80030F9
:101064008CF80130316081E71F4495E00B2B8BD164
:1010740000264FF0FF08C146B24606E07B78042BF9
:101084000FD0052B21D03B781F443B78002BF5D1A2
:10109400EB6913B1514607209847002E7FF466AFE1
:1010A40072E797F80280A38897F803909845EAD1ED
:1010B40063889945E7D1B8F1070F1FD805EB0803FA
:1010C400BA4683F8BB900126DDE7A3884345DAD10D
:1010D400A3784B450DD0BE78304600F007FC30466F
:1010E40001F04AFB10F1780FEDD0B0FA80F67609E2
:1010F400C9E73846FFF73AFE0646C4E7BA46002673
:10110400C1E794F900206378002A18DA002B7FF4F1
:101114003BAF24793F6863060AD02046FFF758FEA8
:1011240000283FF431AF95F8BA30002B3FF42CAFD0
:101134003946204604F0ACFD00237B7011E7012BF7
:1011440008D0032B7FF420AF6388002B7FF41CAFFF
:10115400012103E0618800297FF416AFA088FFF71E
:10116400B9FE00287FF402AF0EE7022A3B607FF449
:1011740018AF5B883360F9E6D00400208A050020AC
:1011840094F9000063780028BFF670AF002B3FF499
:1011940065AF0A2B7FF4F8AE3B78002B3FF4F4AE36
:1011A400797804297FF460AFB9788A427FF45CAF20
:1011B400072A96BF5219002392F8BB308CF80030EE
:1011C400F4E600BF13B5134C237DCBB9E268A168E4
:1011D400019201AB802004F00EFB019AA368134432
:1011E400A360E3689B1AE36043B93AB12369E288D8
:1011F4009A4203DD9B0601D10123237502B010BD81
:1012040000231A4619468020237502B0BDE8104019
:1012140001F0C6BAD004002030B585B000230246E0
:101224000D460193002858D1002935D108220B46D8
:101234000DEB020104F039FD002804DA802001F0EE
:101244004DFA05B030BD2A4C029A2260039A6260BE
:1012540004F13802A2609DF90820BDF80E3025750E
:10126400002AC4E903550ADB802B04D9802001F04D
:1012740035FA0020E3E713B1C4E90333E1E7FFF7EC
:10128400C3FD0028DAD0E28823699A42D4BFE26021
:10129400E360FFF797FFD4E7154CD4E90215002D5E
:1012A40001AB04DC04F001FD0028CADAC6E72A46D3
:1012B40004F0FBFC0028D9DB019AA3681344A36063
:1012C400E3689B1AE360002BBBD104F13803A360ED
:1012D400FFF79AFD0028DCD1B0E78028B1D1044B98
:1012E400DA68002AD5D11B7D002BD2D1A9E700BF33
:1012F400D0040020054B064A9A62064ADA62064A7E
:101304001A63064A58629A6100207047D00400208C
:10131400290F0008950C0008350D0008D50C0008AD
:1013240010B5084B93F8B84034B900F0CBF830B19D
:10133400FFF7E0FF204610BD6FF07700FBE74FF0AA
:10134400FF30F8E7D00400202DE9F3410446354D81
:1013540035484FF0FF324FF0FF3303F015FA95F89C
:10136400B860002E5BD131482C62E86101F070F95D
:1013740001F0E0F8041E36DB00F0FAFA041E32DB5A
:1013840040236846ADF802308DF804608DF80060A3
:1013940004F069FC041E26DB802768468DF8007083
:1013A40004F061FC041E1EDB2149304604F041FCBC
:1013B400041E18DB1E49384604F03BFC041E12DBF5
:1013C4001C4CDFF87480444514D3002001F0B2F9BA
:1013D400041E08DB802001F0ADF9041E03DB0123A9
:1013E40085F8B8300024104803F048FA204602B0CB
:1013F400BDE8F081276A0026227FF3B29A4201D821
:101404002434E0E707EBC30257F83310107904F0F3
:1014140010FC01360028EFD04FF0FF34E3E76FF003
:101424007704E0E7D004002094010020390E00087E
:101434001D120008640200208802002030B51F4BF2
:101444008BB005AA03F1100518685968144603C443
:101454000833AB422246F7D11B78237010220021B7
:1014640001A804F069FB12220021154804F064FB72
:10147400102101A801F0ECFD00281BDD0828B8BFED
:101484000820093801AB0E491A18002012F8013F50
:101494000AAC04EB131403F00F0328336B4401303C
:1014A40014F8144C13F8143C0C7008284B7001F118
:1014B4000201EBD102480BB030BD00BF467A0008F0
:1014C4005C0F00202DE9F04F644C85B000264FF0EE
:1014D400011BB1463546B24623782BB9604B023422
:1014E4009C42F3D15D481CE06378052B05D8DFE806
:1014F40003F07B04037B0725A24623781C44EBE717
:10150400E378002BF9D1A37873B109F101095FFAEB
:1015140089F9F2E76A68944209D024359D42F9D3E7
:10152400002005B0BDE8F08F4E4D4F4BF6E7AB6899
:10153400002BEAD0494620469847E6E7002DEFD035
:10154400002301212A7F9342EAD22A6AA77802EB78
:10155400C3021079874201D00133F3E70127E07811
:1015640000F003008DF80C00207994F805C040EADF
:101574000C20ADF80A0094F9020000285FFA87F8FD
:1015840027DA07F1100001FA00F010EA0B0F27D157
:1015940048F080008DF8080002A8CDE9003204F07C
:1015A40053FBDDE900320121D0B99DF80830A37066
:1015B40013F0800F18BF08F11008137118BF5FFAF9
:1015C40088F80B460CBFBB4001FA08F34BEA030B47
:1015D40093E701FA07F010EA0B0F01D14046D9E76F
:1015E4000137102FBBD1B7E7032E1DD1FFF726FF1C
:1015F400074668B104F071FA804648B11B4804F00C
:101604006CFA804504D142463946A01C04F089FA9C
:1016140023786FF00201E218091B04EB5303D14253
:1016240013D50136F6B268E7002EF1D1BAF1000FF6
:101634003FF476AFA4EB0A038AF80230C3F307231E
:101644008AF803308AF80490EBE74FF0000002F8C0
:10165400010C13F8010902F8020DE0E7A8010020CB
:10166400610200206402002088020020467A0008FB
:1016740010B5094B00211A461C78844204D15C68D9
:1016840014B102EB811010BD0131042903F14003B0
:10169400F2D10020F7E700BF940500202DE9F341C3
:1016A40050F8283C10F82C6C1033044610D1036910
:1016B40050F8202C99073CD502BB13F0040304D145
:1016C4001A461946304604F096F8002344F8283C9C
:1016D40054F8283C10330ED054F8185C5DB154F81B
:1016E4001C7C54F8148C05F049FC00284CD02E487E
:1016F400214605F09DFC02B0BDE8F08150F8241CA1
:1017040001AB304604F077F810B16FF01503DDE754
:10171400019A54F8243C134444F8243C54F8203CE3
:101724009B1A44F8203C54F81C3C134444F81C3CD9
:10173400CEE750F8241C01AB304601F083F80028B2
:10174400E3D1019D54F8243C2B4444F8243C54F840
:10175400203C5B1B44F8203C54F81C3C2B4444F8CC
:101764001C3C002DB1D0304604F0ADFAB5FBF0F3CB
:1017740003FB1055002DA8D154F8203C002BA4D015
:10178400304601F08FF8A3E744F8180CA4F11000D8
:1017940003F0B0F854F8283C8C33ACD042463946B8
:1017A4003046A847A7E700BF880200204B1E012B44
:1017B40073B506460D460FD8FFF75AFF044668B9BD
:1017C400012D09D101AB01220DF10301304601F0D5
:1017D40039F8019B002BF5D102B070BD05F0CEFBAA
:1017E40004F12C0108B1012D05D1084602B0BDE871
:1017F4007040FFF753BF034802B0BDE8704005F0E6
:1018040017BC00BF880200202DE9F74F064601915E
:101814001546984604F037F8044600285CD14FF08A
:101824001003EFF3118A83F31288BFF36F8FDFF88D
:10183400B0B000220023584603F07CF870B9DFF8FA
:10184400A490A70109EB8414636813F1100F14D159
:101854000193584603F04EF8019B06E00134042C32
:101864000BF1400BE5D16FF00B038AF31188BFF342
:101874006F8F184603B0BDE8F08F019B2061C4E967
:1018840002350C9B63610D9BA3616FF00F0309F894
:101894000760C4F83C806360304604F014FA58B121
:1018A400304604F010FAB5FBF0F303FB10551DB1FC
:1018B400E36B43F00403E36318F0020F07D007F16E
:1018C4002C010948494405F0B3FB0023CDE7304619
:1018D40000F0E8FF0346C8E76FF00F03C9E700BF55
:1018E400B0050020940500208802002010B54FF0B8
:1018F4001003EFF3118483F31288BFF36F8FFFF7A4
:10190400B7FE50B14368103307D16FF08B034360C7
:1019140000F12C01034805F08BFB84F31188BFF31D
:101924006F8F10BD8802002070B50F4C04254FF056
:101934001003EFF3118683F31288BFF36F8F63688C
:10194400103307D16FF08B030848636004F12C0156
:1019540005F06EFB86F31188BFF36F8F013D04F130
:101964004004E4D170BD00BF94050020880200202B
:1019740070B50A4C0A4E00253146204605F03BFB63
:101984000122A4F110001146013505F016FB042DC7
:1019940004F14004F0D1002070BD00BFC005002058
:1019A400A116000870B504460E4601791248154682
:1019B40003F045FFE8B194F900206378002A11DBB5
:1019C400202B04D0222B09D06FF0850005E0296874
:1019D4000722103804F0A5F8002070BD638800F8D1
:1019E400093CF9E7212BEFD1103807232860336035
:1019F400F2E76FF01200F0E79406002008B5014604
:101A0400034803F02AFF10B1012300F8073C08BD86
:101A1400940600200169012381F82B300B6833B14F
:101A240091F829301BB10248083105F001BB704719
:101A3400880200200169012381F82A300B6833B140
:101A440091F828301BB10248083105F0F1BA70470B
:101A5400880200200C4A034600210185106858675B
:101A640090889279A3F8780083F87A2083F87C1020
:101A740083F87B10A3F87E1083F88010402203F1D2
:101A84002C0004F059B800BF7877000838B5056910
:101A940095F87E0070B195F87F3063B985F82830E9
:101AA400286F03F026FE05F118010446034805F0EB
:101AB400BFFA204638BD0020FCE700BF88020020A2
:101AC40013B504698DF8071094F87E308BB194F83F
:101AD4007F3073B90DF10701206F84F8283001229B
:101AE40003F007FE014630B10A4804F1180105F07D
:101AF4009FFA02B010BD206F012203F04EFE0028B1
:101B0400F7D0206F01220DF1070103F0F2FD002848
:101B1400EAD1EEE788020020F0B5C36E5B681B6A69
:101B24001F7D85B00546384603F0ADFE0646D8B99C
:101B3400A86D4FF4806203A903F0FAFD044698B13E
:101B44008306A5F1180308BF00F1FF342E74019336
:101B5400064B03990093224602233846FFF754FEAE
:101B6400A86D214603F004FE05B0F0BD751B000806
:101B740010B5012382F82830136814463BB192F85B
:101B84002A3023B1084802F1080105F051FA236F05
:101B94009A681B699A4206D004F118010248BDE80C
:101BA400104005F045BA10BD8802002010B5046944
:101BB4000023C4F888300C4BC4F88400596804F13D
:101BC400880269B9C3E9002204F10800074905F055
:101BD40012FA04F11800064905F00DFA002010BDB0
:101BE4000A605A60F0E700BF94060020B558000868
:101BF4001D1B000830B54FF40033426805690D4CD5
:101C040085B042F2A100CDE90103002385F87D30BF
:101C1400106AADF80C1000790A2201A903F0EBFD5B
:101C240095F87D3023B9012003F080FC013CF7D105
:101C340005B030BDA186010073B5144602F12C062F
:101C44000A1E05461DDDE06E314603F052FD0123F8
:101C540084F8293023683BB194F82B3023B10E4823
:101C640004F1080105F0E4F9E16E4B684A699A1A37
:101C7400CB699B1A3F2B04D8012384F8803002B02F
:101C840070BD064B0093019401234022314628463F
:101C9400FFF7BAFDF3E700BF880200203D1C0008EF
:101CA40038B50D460146244803F0BDFD044680B313
:101CB4000246691E52F884395B68052929D8DFE891
:101CC40001F020280320252914F8061C31B91B6AC9
:101CD400187BFFF7B1FF012304F8063C14F85C3CC1
:101CE400BBB9012304F85C3C54F8843C8BB114F870
:101CF4005A3C73B1A4F17C011048BDE8384005F0AA
:101D040097B9BDE838401046FFF7A4BE012304F894
:101D1400053C38BD14F8051C0029FAD014F8060C4B
:101D2400002104F8051C0028F3D01B6A187BBDE8C9
:101D34003840FFF781BF00BF9406002088020020CE
:101D440037B5094D0949002400944FF0FF334FF48F
:101D54008062284602F00CFF0549284605F014F974
:101D6400204603B030BD00BF88020020800F002051
:101D7400657A0008014910220A60704710ED00E0FE
:101D840072B6404080F31188BFF36F8FBFF34F8F5B
:101D940030BF62B6BFF36F8F704700BF40B20028F8
:101DA40007DB044A4109012300F01F00834042F885
:101DB4002130704700E100E040B200280CDB430909
:101DC400064900F01F0020330122824041F82320FD
:101DD400BFF34F8FBFF36F8F704700BF00E100E088
:101DE40040B20028A8BF00F1604001F10101B8BF72
:101DF400064B4FEA0111ACBF00F5614000F00F0043
:101E0400C9B2B4BF195480F80013704714ED00E050
:101E140030BFFFF7FDBF00BF0F4A08B50F4B22F0DC
:101E24007F029A60BFF34F8FBFF36F8FD3F8882080
:101E340022F47002C3F88820EFF3148323F0040320
:101E440083F31488BFF36F8F02F044FB03F014FA9A
:101E540000F0CAF902F082FB0000000800ED00E087
:101E6400094A0A49936809689967094958674B6898
:101E740043F080534B60002383F31188BFF36F8FCB
:101E84009368986F704700BF200F0020087A0008FD
:101E940000ED00E012498A684FF030001044EFF37F
:101EA400098C80E8F01F102080F31288BFF36F8F35
:101EB4000C4F4FF000668A698A603E60506F0023C1
:101EC400536780F3118804B5104600F0D1F9BDE8DA
:101ED400044002F1300090E8F01F8CF30988704749
:101EE400200F002004ED00E01EF0040F0CBFEFF300
:101EF4000880EFF30980816911F8021C0229FFD0E0
:101F040001B503F0DBFD01BD42F8203C009B42F823
:101F14001C3C0A49019B42F8183C029B42F8143CC1
:101F240021F001014FF0807342F8043C42F8081C90
:101F34000023203A02654367704700BFC15500087B
:101F4400094A0346906870B113F1160F406E05D02C
:101F5400A0F140029A4205D8834203D2814228BFAD
:101F64000020704700207047200F002008B5094B5F
:101F740098600D46144600F07BF9204685F30988E5
:101F8400002163B681F31188BFF36F8F0022002311
:101F940003F014FB200F002001B5EFF30580A0F13E
:101FA40010004FEAC0000449014409C99847BDE83C
:101FB400014002490847000024740008C51F0008B6
:101FC400044B99689869884203D003494FF08052C2
:101FD4000A607047200F002004ED00E070B51D4B2F
:101FE40015469A6A9A6A9A6A9207064622D5586BE7
:101FF4009A6A14061ED519B19A6A22F080029A626E
:102004009A6A9A6A9A6A134C12F0100F15D19B6A55
:10201400990712D40020A36A0E4A9B0642BF636A42
:1020240023F400536362936A43F0FF039362002333
:102034002B7070BD6FF01500E2E763681A05E9D5EF
:102044003146FFF77DFF0028E4D080F309880220A1
:10205400E1E700BF00ED00E00D4B9A6A9A6A9A6AC4
:10206400920508D59A6B9A6A120404D518B19A6A33
:1020740022F400429A629A6A9A6AD205044A58BFC4
:102084009B6A936A002043F47F439362087070470D
:1020940000ED00E070B54A4B5B688AB00546C3F3B7
:1020A4000803002686F31188BFF36F8F02F07F4088
:1020B400B0F17F4F11D102F00C0008280DD01007A9
:1020C4004CBF0D4601260022033B8DF80720032B4D
:1020D4004DD8DFE803F00465696D3546F3E7384B06
:1020E400DA6A910743D4DA6A002A40DBDA6A5200DA
:1020F4003DD55A69A96942F480725A61BFF34F8F82
:10210400BFF36F8F5A6931F8021C22F480725A614E
:10211400BFF34F8FBFF36F8F4DF60272914209D018
:102124009A6AD2B242B10DF1070201212846FFF7A3
:1021340055FF0AE02C681BE09A6A12F47F4F06D020
:102144000DF107010120FFF787FF044610E09A6AAA
:10215400B2F5803F0BD39A6A9A6A9A6A9A6A9A6A23
:102164009A6A9A6A6FEA02426FEA12429A620024F9
:102174009DF8073093B92022294602A803F0D1FC28
:10218400099BBEB1C3F3080222B96FEA53236FEA75
:102194004323099302A9204603F08EFC0AB070BDC4
:1021A4000DF107020021C1E70DF107010020CAE784
:1021B400034BD0E723F4FF7323F00103E9E700BFE7
:1021C40000ED00E0024A536943F010035361704785
:1021D40000ED00E0EFF30880EFF3098101B57246EA
:1021E400FFF758FF01BD00BF044800231021C218A7
:1021F4000133552B82F80013F9D1704700E100E058
:10220400102080F3118808484FF40461401880F3CB
:102214000988EFF314800221084380F31488BFF384
:102224006F8FFFF7F9FD0000C0130020084B9B6877
:1022340083420BD1EFF3058343B1064B5A6842F056
:1022440080525A605A6A22F400425A6202F0A2BFD3
:10225400200F002000ED00E0024B034A0348012157
:1022640000F070B80000012000000020D4770008BE
:10227400426E054B403A1A60044A4021C3E90112F8
:102284001846012100F068B89C06002000000B15D8
:10229400F0B5204E00258D4239DA446874B353B149
:1022A40004F1FF3C14EA0C0F2FD11F2C2DD9076821
:1022B4001CEA070F29D1202C0768D0F808C05FFA60
:1022C40082FE1ED9B4F1004F1DD8013CB4FA84F447
:1022D400C4F11F046400BEF1070F4CEA040C14D8C7
:1022E40027F01F04144344F01004C6F89820C6F8DD
:1022F4009C404CF00104C6F8A040013201350C307A
:10230400C9E70824E7E73E24E5E76FF01502104625
:10231400F0BD00BF00ED00E0044B0522C3F894209B
:10232400BFF34F8FBFF36F8F704700BF00ED00E026
:10233400BFF35F8F024B0022C3F89420704700BFA5
:1023440000ED00E010B5034C01232278FFF7A0FF55
:10235400207010BD6E0F002008B5094A00231278C2
:10236400FFF796FF10F1160F02D0064A072800DD8A
:1023740008BDC2F89800C2F8A0300130F6E700BFEB
:102384006E0F002000ED00E014490868082810B51D
:1023940021D8FFF7CDFF124C49680022904201F189
:1023A4000C0105D10F4B1870FFF7B6FF002010BDCC
:1023B400C4F8982051F80C3C23F01F03134343F056
:1023C4001003C4F89C3051F8043C43F00103C4F8F2
:1023D400A0300132E2E74FF0FF30E8E7E077000891
:1023E40000ED00E06E0F0020014B1860704700BF45
:1023F400E80000202DE9F8430D4F04460E4615462B
:102404004FF0010802F10409B44201DBBDE8F8838E
:102414007A6908FA04F333EA020207D17B6155F8BA
:1024240034301BB159F83410204698470134EBE797
:10243400003C0140044A0123116883400B431360AC
:10244400024B1856FFF7AABC003C01409B7A0008D7
:102454001F2806DC034901220B68824023EA020399
:102464000B607047003C014003292AD8DFE801F0E3
:10247400020E141F134B01229968824021EA0201C3
:102484009960D96821EA0202DA6070470D4B012293
:10249400996882401143F3E70A4B0122D9688240CC
:1024A4001143D960996821EA02029A6070470123B6
:1024B40003FA00F0034B9A6802439A60DA68104307
:1024C400D8607047003C014010B5074B044653F8F0
:1024D400300028B943F8341003EBC4035A6010BD2C
:1024E4006FF00F00FBE700BFA8060020034B00229B
:1024F40043F8302003EBC0035A607047A80600205D
:1025040020F08002032A0BD8064B10F0800FA3F1B1
:10251400900114BF18460846242303FB02007047A9
:1025240000207047000D0020014801F099B800BF59
:1025340060070020F7B53F4B93E803006F4687E838
:1025440003003D4C204604F0E3FC20B96FF0120672
:10255400304603B0F0BDA36839461B68204698474F
:10256400064610B16FF00406F2E7344D34484FF0DC
:10257400A0410423C5E900130A22324903F0BDFA3D
:10258400002854D02E490A22084603F0B6FA00283F
:1025940014BF032301230024EB6002224023C5E976
:1025A40005322948EC623A4621462C6104F056F87B
:1025B400A04205DB009B22461979186800F0DEFF73
:1025C4001E4804F062F80028CCD11C4804F0FFF83F
:1025D4000028C7D1194804F0DAF804460028C1D10C
:1025E400402185F8140585F8A405A5F81015A5F86B
:1025F400A0151248154D04F075FAA5F2B4574022FF
:10260400E1B2384604F04FFA01222846114601345B
:1026140004F0D3FC042C05F12405F0D1002211466A
:102624004320FFF7DDFB4320FFF7B8FB90E7334679
:10263400B1E700BF48770008EC720008600700208B
:10264400BD7A0008B27A000800780008140D002052
:10265400014BC3F80C05704760070020014608B51C
:10266400044804F0DBF8002814BF6FF004000020D5
:1026740008BD00BF6007002008B5134602060146E6
:1026840005D5802800D12BB16FF0150010E0402B48
:1026940028BF402321F080020648920102F5C66259
:1026A400024404F036F9002814BF6FF0040000203F
:1026B40008BD00BF60070020030610B50C4607D410
:1026C40031B10146044804F048F92060002010BDEF
:1026D4006FF01500FBE700BF6007002038B5054622
:1026E400FFF70EFF044638B10648294604F05DF9A9
:1026F40028B90123637138BD6FF01500FBE76FF053
:102704000400F8E76007002038B50546FFF7F8FE37
:10271400044638B10648294604F07FF928B96071A7
:10272400E06038BD6FF01500FBE76FF00400F8E7D8
:102734006007002038B50446FFF7E2FEA0B10D4D56
:10274400037902882146284604F07CF878B963B2FC
:10275400002B0BDD402202FB0451204601F5C6612B
:10276400BDE83840FFF788BF6FF0150038BD6FF043
:102774000400FBE76007002010B50446FFF7C0FE25
:1027840048B10648214604F095F8002814BF6FF0BC
:102794000400002010BD6FF01500FBE76007002067
:1027A4002DE9F8430646894615469846FFF7A8FEE4
:1027B40000283ED033063CD500F114070022002344
:1027C400384602F0B7F80446B0BB04F0D7FB10B9A2
:1027D4004320FFF7F1FA802E02D1402D28BF402577
:1027E4004A4617482B46314604F0BFF8024658B112
:1027F400384602F07FF804F0C1FB10B94320FFF71C
:10280400CDFA6FF0040411E0802E04D11DB101460D
:102814003046FFF731FF04F0B1FB10B94320FFF756
:10282400BDFAB8F1000F01D0C8F800502046BDE849
:10283400F8836FF01504F9E76FF00A04F6E700BFB8
:10284400600700202DE9F8438146884616461F4656
:10285400FFF756FE044600B319F0800FC5681CD17B
:10286400B8F1000F14D0B54228BF354603690C49AE
:102874004FF4C66606EB89161E442A463144404688
:1028840003F04FF9E3685B1BE36023692B44236186
:1028940007B13D600020BDE8F8836FF01500FAE74A
:1028A4006007002010B50446FFF72AFE80B1230616
:1028B4000ED4C3680BB1002010BD402206494FF46A
:1028C400C66312FB043319442046FFF7D5FEF2E732
:1028D4006FF01500F0E700BF6007002010B5134C3F
:1028E400002340228021204603F0ACFF0023402235
:1028F4001946204603F0A6FF04F2B45001F0FAFF93
:1029040004F5BB6001F0F6FF04F2FC5001F0F2FFA5
:1029140004F5C46001F0EEFFD4F80C3523B1BDE832
:10292400104000210120184710BD00BF600700209F
:10293400034BD3F80C3513B100210220184770471C
:1029440060070020034BD3F80C3513B10021042099
:102954001847704760070020034BD3F80C3513B1B8
:10296400002105201847704760070020034BD3F867
:102974000C3513B10021062018477047600700206A
:1029840038B5114C08220025C4F81C25C4F820557C
:1029940004F2C44104F5C66003F0C3F8D4F8183552
:1029A40083B1294628469847B4F8CA2452B194F909
:1029B400C434AB4206DB04F5C6612846BDE83840A2
:1029C400FFF75ABE38BD00BF6007002010B5164B94
:1029D40018680B68442B144613D82F2B06D8012BE8
:1029E40014D0022B18D06FF0850010BDA3F1300174
:1029F40001228A400D490A4205D1402BF3D14008F7
:102A040001E0A82BEFD120600020EEE700F092F85F
:102A1400482358430009F6E700F08CF8482358434C
:102A24001823B0FBF3F0EEE76C0100201101100055
:102A340070B53B4C3B4E00F093F800F0E5FDA36805
:102A4400394AC3F30313D35C20FA03F5B54202D821
:102A5400364801F0B5FC236823F4802323602368FF
:102A640043F4803323602E4B1A689403FCD59A6890
:102A740002F00C02082A17D19A6822F0F0029A6038
:102A84001A68900707D41A6842F001021A60244AAF
:102A940013689907FCD5224B9A6822F003029A60C6
:102AA4009A6812F00C0FFBD11D4C236823F080733D
:102AB4002360636823F440336360636823F07063C6
:102AC40043F04073636000F039F8236843F0807387
:102AD400236023689B01FCD5A36823F0F003A36063
:102AE400A36823F0030343F00203A3600C4CA36820
:102AF40003F00C03082BFAD1B54202D90B4801F0BC
:102B04005FFC0B4B094A1A60A36823F4E05343F4B7
:102B14008053A360A36823F46043A360002070BDC6
:102B240000380240FFA14A04627B000800A24A0464
:102B34006C010020004870470024F400054B06494E
:102B44005A681140054A0A435A605A6822F44032CE
:102B54005A607047003802400080BFFF08124000EE
:102B6400064B1A6C42F080521A641B6C82B003F05C
:102B740080530193019B02B0704700BF00380240AC
:102B840008B5074804F0C4F938B10648FFF72CFC2F
:102B94000448FDF797FC002008BD6FF01200FBE726
:102BA400DC730008AD2B00080A2838B5074D04462D
:102BB40004D1AB680D215B6828469847AB6803488D
:102BC4005B68E1B29847204638BD00BFDC7300085B
:102BD40038B5036904465860084D284604F098F94E
:102BE40040B16168AB680C311B682846984700EA1D
:102BF400E07038BD6FF01200FBE700BFEC72000814
:102C0400F7B51746B7F5001F466802690C461D461E
:102C140024D101F00302043292000F23934043EACB
:102C24009103DAB23349023251F82220190C02EA34
:102C3400134391FAA1F2B2FA82F2D340B2689A42F3
:102C440009D12046FFF704FC2046FFF74FFC002182
:102C54002046FFF709FC002003B0F0BDB7F5800F54
:102C640041D025492046FFF72FFC00283ED1234AB6
:102C7400B66892E803006B4683E803002048826844
:102C8400194612689047C0B904F0030304339B004B
:102C94000F229A4042EA9402D3B29B0003F180438C
:102CA40003F59C33110C986820EA124091FAA1F2C2
:102CB400B2FA82F2964006439E60B5F1806F0ED060
:102CC400B5F1C06F0DD005F17E4359425941490019
:102CD4002046FFF7C9FB2046FFF7ACFBBBE7012109
:102CE400F6E70321F4E76FF08500B5E76FF00F0016
:102CF400B2E700BF003801408D5F0008507700083C
:102D0400EC7200082DE9F3410446056946682F4F2B
:102D1400384604F0FDF8002855D0BB6831691B68BB
:102D24003846984700284BDB706801AA002103F05D
:102D340095FC002844DB019B00221979186800F0F7
:102D44001DFC00283CDBB36820469847AC6801268C
:102D54000834D5E9023203EBC203A4F1080293421A
:102D640004D8284603F0A9F9002029E054F8080CF7
:102D740004F0CEF838B354F8080C14F8041C34F8F2
:102D8400023CD0F810C0D0F80880DCF80070DA07F4
:102D940054BF43F4B01383F4D01323F4801206FA1F
:102DA40001FEDB074CBF4EEA070727EA0E07CCF803
:102DB4000070D8F800309847002804F10804C8DAF5
:102DC40002B0BDE8F0816FF01200F9E7EC72000880
:102DD4002DE9F04F1E4643680569D3F800808BB097
:102DE40081460F46924602B99EB3BB889A0434D4F6
:102DF4004FF0FF324FF0FF3305F1100001F09AFD60
:102E04006F60DFF844E2D9F810B0D9F804C0BEE826
:102E14000F0002AC0FC49EE80F0084E80F00DBF83B
:102E24000030DCF800409F4200F09880BB88C3F378
:102E34004512082A18D0102A16D06FF085062B6880
:102E44009B8813F4005304D16B6005F1100001F06A
:102E540051FD30460BB0BDE8F08FAB69002BC7D1F4
:102E64006B689F42C4D1CCE713F4004F6368774882
:102E740014BF43F0100323F0100363608368DCF88D
:102E84001010DB6813B96FF00406D8E701AA98475D
:102E94000028F8DB019A3968012322FA03F08842FA
:102EA40005D90133092BF8D16FF01506C7E722685D
:102EB4000AA922F04002226001EB8303226853F83E
:102EC400243C22F0380213432360BB889B0703D4BD
:102ED400236823F0020302E0236843F00203236023
:102EE400BB8813F0040F236814BF43F0010323F0DD
:102EF40001032360236823F444432360BB8813F055
:102F0400100F236814BF43F0800323F08003236071
:102F1400236823F400532360BB68002B75D0236817
:102F240043F400732360636823F004036360BB8885
:102F340013F0010F236814BF23F4827343F48273E4
:102F44002360BB88C3F34513082B23680CBF23F409
:102F5400006343F400632360CBF80070BAF1000F00
:102F640061D1C5F834A00023AB6305F14802012305
:102F740005F1380105F1340003F035F86864002EDA
:102F840059D1EE6300232B6405F15002012305F1AE
:102F9400400105F13C0003F026F80022E8642A63AE
:102FA400D8F8003043F04003C8F80030D9F81000D6
:102FB400012103F060F8D8F8043043F02003C8F886
:102FC40004302EB1D8F8043043F04003C8F804307C
:102FD400D8F8043043F08003C8F804302A6DAB6C91
:102FE40028469A4238BF1A464FF4FA535A4350F8C7
:102FF400203B1B68B2FBF3F20A23C832A2FB032373
:1030040001F098FCE8B92E6B19E7BB8813F0010FA7
:10301400236823F4007385D143F480232360636819
:1030240043F0040382E7DAF800306B63002B9AD094
:10303400DAF8043098E73368EB63002BA2D07368A6
:10304400A1E76FF07306FAE658770008EC720008FF
:103054001FB50C4BD3F8182A12BA0192D3F8142ACC
:1030640012BA02920C29D3F8103A28BF0C211BBAC9
:103074000C460A4601A9039302F053FD204604B00E
:1030840010BD00BF0070FF1F4268116801F11403F6
:1030940053E8003F43F0010301F1140C4CE8003005
:1030A4000028F3D113680E498B4207D0A1F54C4197
:1030B4008B4203D001F550418B4203D1196941F091
:1030C40040011961126802F10C0353E8003F43F414
:1030D400807302F10C0040E800310029F3D17047FD
:1030E400001001404268116801F1140353E8003FE5
:1030F40023F0010301F1140C4CE800300028F3D153
:1031040013680E498B4207D0A1F54C418B4203D082
:1031140001F550418B4203D1196921F04001196135
:10312400126802F10C0353E8003F23F4807302F1A8
:103134000C0040E800310029F3D170470010014031
:10314400F7B50769446806463548786003F0E0FE41
:10315400002862D07868616883681B6898470546D0
:10316400002852D1014601AAA06903F077FA002889
:1031740001DA054649E0019B2A461979186800F0EE
:10318400FDF90028F5DB2268D36823F40053D360EB
:10319400216801F10C0353E8003F43F00C0301F1F3
:1031A4000C0040E80032002AF3D12369022B2FD00F
:1031B400012B12BF00204FF480504FF4C0622168ED
:1031C400CB68104323F4B0530343CB600B6923F45F
:1031D40040530B61237B2BB173681A68536943F422
:1031E400407353613968304603F0C8F9237D23B135
:1031F4002268536943F0080353612268D36843F497
:103204000053D360E36930469847284603B0F0BDC5
:103214004FF480504FF48062D1E76FF01205F4E769
:10322400EC7200082DE9F0410B7945680669012B21
:103234000C467DD09A1E57425741BF02627994F8DA
:103244000680022A96BF4C494FF4005C31F812C044
:10325400B8F1040F7BD094F807E0002B6BD1BEF1DA
:10326400010F22F002027FD0002A70D0B8F1020FC1
:103274006DD91946D5F80080BEF1000F0DD03F4A34
:10328400904507D0A2F54C42904503D002F5504238
:1032940090455CD1BEF1010F59D1D8F80C2022F42D
:1032A4000052C8F80C204268D2F800E0DEF80C2086
:1032B40002F4C06297421FBFDEF80C2022F4C06201
:1032C4003A43CEF80C20426817683A6902F4405237
:1032D40094451FBF3A6922F4405242EA0C023A6113
:1032E40042681768FA6802F480529A421FBFFA686B
:1032F40022F480521343FB6043681A68536903F451
:10330400407399421FBF536923F440730B435361C5
:1033140021683368994203D003F030F9236833609D
:103324002A68D36843F40053D3600020BDE8F081D9
:103334004FF4C06782E7033BBEF1010FDBB209D152
:10334400012B04D94FF4407112F0FD0F06D16FF038
:103354008500EBE7012BFAD90021F5E7B8F1020F5C
:10336400F5D94FF4805385E7002AF0D0B8F1020F65
:10337400EDD94FF440717DE7247A00080010014034
:1033840010B54FF0E0239A6919699869094B11F453
:10339400803F094901D1824206D21A680C6822444E
:1033A4001A604FF0E02212691B680A681344181A65
:1033B40010BD00BF100F00201C0F0020094B10226D
:1033C40083F82320084B41F61F421A60074B002064
:1033D40018604FF0E0235A6198611A6942F00702BD
:1033E4001A61704700ED00E01C0F0020100F002050
:1033F40008B5FFF7C5FF0C4B0C4A18681168084460
:10340400106000221A600A4A13684FF4E151C01A8E
:10341400B0FBF1F001FB0033136002F013F8BDE8D8
:103424000840FEF7CDBD00BF100F0020180F00208C
:10343400140F00202DE9F041314E002954D0421CD4
:103444000AD14FF0E022136923F0010313614FF016
:103454007F433360BDE8F081356801284ADD40F6DA
:103464001918404501DC00F1FF384FF01003EFF369
:10347400118483F31288BFF36F8FFFF781FF214F0D
:103484004FF0E0230021D3F818C03B68C2181E4B4C
:1034940019601E4B1B68D11A2FD44FF4E15000FB66
:1034A400081101F5E0519B1A1F31B1FBF0F100FB4B
:1034B4000133B3F5806F20D915498B4228BF0B46E1
:1034C4004FF0E02133608869013B4B6100238B613D
:1034D4008445ACEB000338BF5B191A443A6084F3AB
:1034E4001188BFF36F8FB5E7431C3568B5D140F63B
:1034F4001910B8E74FF00008B7E74FF48063DFE72F
:103504001C0F0020180F0020100F0020140F0020A3
:1035140020DFFF0010B54FF01003EFF3118483F3A5
:103524001288BFF36F8FFFF72BFF074B074A1B6807
:1035340012689B1A034484F31188BFF36F8F4FF40E
:10354400E150B3FBF0F010BD180F0020140F002061
:1035540010B54FF01003EFF3118483F31288BFF317
:103564006F8FFFF70DFF044B1B68184484F3118819
:10357400BFF36F8F10BD00BF180F00202DE9F04777
:10358400204F044600EBC1060025B44201D10020BF
:1035940014E02268D10602F01F0911D4656845F0D1
:1035A4002005C2F3471AC2F343220A2A27D857F840
:1035B4002280B8F1000F11D16FF01200BDE8F0873E
:1035C400B9F1100F08D0B9F1110FEAD165682B05D4
:1035D400E7D545F01005E4E73025E2E7404603F07F
:1035E40097FC0028E8D04B462A460AF00F014046D3
:1035F40002F0E1FC002804F10804C6DADEE76FF00B
:103604001500DBE7DC79000808B510498B6803F086
:103614000C03082B18D14A684B6849680C4813F40A
:103624008003C1F3881118BF002302F03F02A1FBFD
:103634000001FCF7ADFD054B5B68C3F301430133A7
:103644005B00B0FBF3F008BD0148FCE70038024022
:103654000024F400014B1868704700BF6C0100207F
:103664002DE9F04F066889B00446304603F03BFC70
:103674000390002840F05581206803F006FC0028E0
:1036840000F04F81D6F808382068C3F30D23C4F83E
:10369400FC3403F0FAFB870741BF2268536903F047
:1036A40002035361206803F0F0FBC00606F50065D1
:1036B4002CD52268936923F010039361D6F82080F7
:1036C400C8F34343022B08F00F0740F02D8147F65F
:1036D400F07318EA030F14D0242303FB0747C8F33D
:1036E4000A19D7F88C124A46304603F02EFBD7F855
:1036F4008C324B44C7F88C32D7F89C324B44C7F811
:103704009C322268936943F010039361206803F0AC
:10371400BCFB010300F11A81206803F0B6FB4203ED
:103724000DD5206803F0BDFB2746049006F5106B09
:103734004FF0000A049B2068002B40F0CC812068E5
:1037440003F0A3FB002813DA6B6823F001036B601A
:1037540094F8F434012B40F06882002184F8F414C6
:10376400204603F0C3F92268536903F00043536110
:10377400206803F08AFB01050AD5AB68DA0702D595
:103784002046FFF7E9F82268536903F400635361A4
:10379400206803F07AFBC30433D56B6823F001037C
:1037A4006B601021206800F035FB06F510634FF6BE
:1037B4007F3162680398824200F23B82EB6943F0F6
:1037C4000113EB61236B002B00F05082D5F8843099
:1037D40043F00B03C5F884306B6C43F00B036B644C
:1037E400D6F8003823F4FE63C6F8003804F2C44265
:1037F400217C206800F0BEFD2268536903F48053E5
:103804005361206803F041FB870416D5206803F058
:103814006EFB206803F0EEF9E0602768FFF71AFFFB
:10382400227B0146384600F085FA2046FFF756F819
:103834002268536903F400535361206803F025FBA5
:10384400000707D5204602F0E6FF2268536903F01B
:1038540008035361206803F018FB010600F111828C
:10386400206803F012FBC2020CD5A04606F51269CB
:1038740001276368BB4200F21D822268536903F486
:1038840080135361206803F000FB83022CD5234688
:1038940006F53260012162688A4220D993F8A4C2F5
:1038A4000268BCF1010F40F01B82002A80F21882EA
:1038B400D4F8FC7402F4803207F00107BA4240F0F5
:1038C4000F8283F8A3C2B26942F08002B2617269C6
:1038D400170600F105826B6843F400736B6022687D
:1038E400536903F400135361206803F0CEFA4100D6
:1038F40007D52046FFF71CF82268536903F080437C
:103904005361206803F0C1FA42070AD523685D6851
:103914006B0702D52046FFF715F8226853682B433E
:10392400536009B0BDE8F08F062B7FF4EAAE08229D
:1039340004F2C441304603F008FA242303FB07478A
:10394400C8F30A18D7F89C324344D8E6206803F039
:10395400A0FA06F530680490A2460027049B20686C
:10396400002B3FF4D9AE049BDB0762D55FFA87FBDB
:10397400594603F09EFA10F0010F81461BD0012333
:10398400C8F8083020682169D0F840C000F53063D9
:1039940003EB471301299A6878D1110707D5B14978
:1039A4008C4508D9100406D54FF4004202E0910674
:1039B40048D520229A6019F0080F0FD00823C8F8C0
:1039C40008302368A749186C03F5306303EB4713E9
:1039D40088429A686ED82046FEF7D2FF19F0100F7D
:1039E4001CBF1023C8F8083019F0020F14D07369F3
:1039F4001A0642BF6B6843F480636B609AF87F32A7
:103A0400012B06D100238AF87F325946204602F062
:103A140003FF0223C8F8083019F0200F1CBF20232D
:103A2400C8F8083019F4005F1CBF4FF40053C8F8FD
:103A34000830049B5B080137049308F120080AF15D
:103A4400240A8BE712F0280FB5D186498C4501D999
:103A54001204A9D41A69DAF89832C2F312029B1A32
:103A6400CAF89C326FB9D4F894222AB904F2C44239
:103A7400012100F07FFC04E0D4F88C221A44C4F83D
:103A84008C225946204602F027F994E776498C4562
:103A940006D1110488D49006F3D520229A60F0E769
:103AA400002FEED1D4F89432002BEAD104F2C442B0
:103AB4003946DEE7110444BF4FF400429A602046C1
:103AC400FEF75EFF2169012988D1206804F2C4420F
:103AD40000F050FC82E7049BDB0740F19D805FFA15
:103AE4008AF31946079303F0EDF910F0010F8046AD
:103AF40020D06B6B01210AF00F0201FA02F223EAD3
:103B040002036B63CBF80810216901290DD1D7E9B1
:103B140012231344FB64BAF1000F06D1636D23B979
:103B2400206804F2C44200F025FC5FFA8AF12046C2
:103B340002F0E8F818F0080F1CBF0823CBF808308F
:103B440018F0100F1CBF1023CBF8083018F0400FEA
:103B54001CBF4023CBF8083018F0020F12D0514696
:103B6400304600F057F997F83F30012B07D1002376
:103B740087F83F305FFA8AF1204602F04EFE0223B6
:103B8400CBF808302368059318F0800F44D0FA6D01
:103B94007B6D9A4240D8A3EB0208BB6C984528BFC2
:103BA4009846059B03F5106308F1030803EB4A13D9
:103BB4004FEA98080693069BFA6D99697B6D89B262
:103BC400414527D39A420BD3059B0AF00F00D3F843
:103BD40034280121814022EA0102C3F834281BE081
:103BE400A3EB0209BB6C079A0598994528BF99462F
:103BF400237C0093F96C1FFA89F303F093F8FB6CB0
:103C04004B44FB64FB6D09F103084B444FEA9808ED
:103C1400FB65D0E79A42D7D2049B5B080AF1010AFC
:103C2400049324370BF1200B84E52046FEF79EFE17
:103C340099E599601A6822F400121A60C3F8081210
:103C4400D3F8002222F40012C3F80022D3F8002291
:103C540042F00062C3F80022039A01320392203337
:103C6400A7E500BF0A30544F0A31544F6B6943F43F
:103C7400005343F02B036B612B6943F00B032B615F
:103C8400AEE5B36923F08003B361012704F27F2812
:103C94004FF024096368BB427FF6E2AD09FB07F3EA
:103CA40018F80330012B03D1F9B2204602F0EBFEE1
:103CB4000137EFE798F86430D9F80020012B09D1D7
:103CC400002A07DA67F07F0188F86330C9B220461A
:103CD40002F0D9FE013708F1240809F12009C8E5EA
:103CE400013124332030D6E582B0002310490193FA
:103CF4000246019B01330193019B8B4215D8136942
:103D0400002BF6DA002301931369094943F00103F8
:103D14001361019B01330193019B8B4205D8106908
:103D240010F00100F5D102B070470320FBE700BF9B
:103D3400400D0300022A4AD1274B284A0B449342E0
:103D440039D9274B274A0B44934236D9264AA1F541
:103D54007403A3F51053934231D9244AA1F1837318
:103D6400A3F5E74393422CD3214B224A0B449342BD
:103D740029D9214B214A0B44934226D3204B214A73
:103D84000B44934223D3204AA1F1B773A3F55853AC
:103D940093421ED31D4B1E4A0B4493422CBF062351
:103DA4000723C26822F47052C260C26842EA8323C5
:103DB400C360002070470F23F3E70E23F1E70D23C0
:103DC400EFE70C23EDE70B23EBE70A23E9E70923ED
:103DD400E7E70823E5E700BF405327FFFF340C0063
:103DE400401E1BFF3F420F007F4F120020D61300DE
:103DF40060B6E5FE5FE3160000D3CEFE40771B00FD
:103E0400C05BB3FEC091210020753800E05459FE18
:103E1400E09C410082B00246002310480193019BBC
:103E240001330193019B834215D81369002BF6DA01
:103E3400890141F020010023019311610749019B8D
:103E440001330193019B8B4205D8106910F02000C7
:103E5400F5D102B070470320FBE700BF400D03001B
:103E640082B000230F4901930246019B0133019361
:103E7400019B8B4213D81369002BF6DA00230193BC
:103E8400084910231361019B01330193019B8B4269
:103E940005D8106910F01000F5D102B07047032066
:103EA400FBE700BF400D030084B02DE9F84304464E
:103EB40009A880E80E00139E00230F46194603F15B
:103EC400400204EB820201330F2B5160F7D104F559
:103ED4000068002E73D1D8F8043043F00203C8F808
:103EE4000430A36B43F40013A363A36B23F40023F4
:103EF400A363A36B23F48023A3630023C4F8003ECD
:103F0400D4F80038C4F800380E9B012B61D10B990A
:103F140000295CD1204602F066FE10212046FFF7FE
:103F240079FF05462046FFF79BFF2843C0B20023D4
:103F34000038C8F8103018BF0120C8F8143004F550
:103F44001062C8F81C3019464FF090454FF0006CD1
:103F54004FF67F3EBB423ED1002204F5306311464A
:103F64004FF090454FF0006C4FF67F3EBA4244D17B
:103F7400D8F8103023F48073C8F810300023A361FC
:103F84006FF0804363610C9B1BB9A36943F010037A
:103F9400A361A269224B1343A3610F9B1BB1A369C5
:103FA40043F00803A361012E01BFA36943F08043DA
:103FB40043F00403A361BDE8F84304B07047A36B66
:103FC40023F40013A363A36B43F4002394E719467B
:103FD400A0E703219EE7D2F80090B9F1000F0ADAB6
:103FE4003BB9C2F800C011610133C2F808E02032C5
:103FF400B0E71560F7E71160F5E7D3F80090B9F181
:10400400000F0ADA3AB9C3F800C019610132C3F8E3
:1040140008E02033AAE71D60F7E71960F5E700BF61
:1040240000383C8030B54A780B78012A00EB431302
:1040340000F5006029D1D3F80029002A0BDAD3F85F
:10404400002942F00062C3F80029D3F8002942F0A5
:104054008042C3F800290A78C56B012402F00F02DC
:1040640004FA02F225EA0202C2630978C26901F085
:104074000F018C4022EA0402C261D3F80019174AE6
:104084000A40C3F80029002030BDD3F8002B002AD1
:104094000BDAD3F8002B42F00062C3F8002BD3F8FC
:1040A400002B42F08042C3F8002B0A78C56B012430
:1040B40002F00F0204FA02F225EA0242C26309780E
:1040C400C26901F00F018C4022EA0442C261D3F8B4
:1040D400001B034A0A40C3F8002BD4E7007833ECF2
:1040E4000078F3EF4B78F0B50C78384D384E012B4F
:1040F40000EB441443D18F6904F51063B7B91F6909
:104104003D401D611D6945F400251D611D69354053
:10411400012A1D611FD14A6902B15A61D4F80039DC
:1041240043F00443C4F800390020F0BD1F693E4049
:104134001E611E6935401D61CD688E69AE4288BF1F
:104144008D611D6945F400251D618D691E69C5F3E6
:1041540012053543DCE7D4F8003943F00443C4F8CE
:1041640000398B69002BDFD00A78D0F8344802F08C
:104174000F02012393402343C0F83438D4E7D4F822
:10418400100B3040C4F8100BD4F8100B2840C4F8BE
:10419400100B8D69C86804F5306305B18861C86186
:1041A400186940F400201861C8691D69C0F3120041
:1041B4002843012A186102D10A6902B15A61D4F86C
:1041C400003B43F00443C4F8003BADE7FFFF07E0C6
:1041D4000000F8FFF7B54C780B78634E634F012C61
:1041E40000EB431379D18D6903F510643DBB256958
:1041F40035402561256945F40025256125693D4043
:104204002561012A3ED14A6902B162610A79012A13
:104214000CD1D0F8082812F4807FD3F800290CBF01
:1042240042F0005242F08052C3F80029D3F800292A
:1042340042F00442C3F80029002003B0F0BD256910
:104244003D402561256935402561CE688D69276922
:104254003544013DB5FBF6F5454E06EAC5453D43FB
:1042640025618D692669C5F31205354325610D79EC
:10427400012DC6D1256925F0C0452561256945F084
:104284000055BDE7D3F8004944F00444C3F800499D
:104294000C79012C0DD08B69002BCDD00A78D0F885
:1042A400344802F00F02012393402343C0F834380A
:1042B400C2E7D0F8084814F4807FD3F800490CBF53
:1042C40044F0005444F08054C3F8004900920B8B2E
:1042D4000A78096902F026FDAEE7D3F8105B3D4089
:1042E400C3F8105BD3F8105B3540C3F8105B8D69DD
:1042F400CE6803F5306425BB2569C6F312062E4348
:104304002661256945F40025012A256102D10A693F
:1043140002B162610A79012A0CD1D0F8082812F49A
:10432400807FD3F8002B0CBF42F0005242F0805241
:10433400C3F8002BD3F8002B42F00442C3F8002B3F
:104344007AE73544013DB5FBF6F5ADB26E43CE6177
:10435400074E276906EAC5453D432561CD692669AF
:10436400C5F312053543CFE7FFFF07E00000F8FF70
:104374000000F81F30B5114C056CA54200F5306300
:1043840003D9D0F8004B002C16DB00241C611C69F7
:1043940044F400241C611C6944F018041C611C6969
:1043A400012944F0C0441C6101BF5A61D0F8003BAC
:1043B40043F08023C0F8003B002030BD0A30544F46
:1043C400002841D0214B1A681A6802F44042B2F521
:1043D400004F25D11E4A90421DD81E4A1B689042A8
:1043E40001D8002005E003F440430120B3F5804FD9
:1043F40024D0194A136823F0070303431360136896
:1044040003F0070383421CBF136803F00703C01AB9
:1044140018BF012070471B68022003F44043E5E7FE
:104424001B6803F44043B3F5804FDAD1084B98423C
:1044340008D8084B98424FF00000DAD9012838BF59
:104444000120D6E70220D4E7012070470070004025
:104454000087930380C3C901003C02400F4B70B531
:1044640053F82040013053F82060A64200D870BDB4
:10447400D4E90035284698476DB138B10028B8BF53
:104484004042EB68FF28A8BFFF201870EA68537801
:1044940043F0010353700834E7E700BF0C7A0008C7
:1044A40008B50A4B012203201A70FFF7D7FF01F069
:1044B40055F80420FFF7D2FF00F01AF9FBF7D2FFFA
:1044C400034A137B23F00103137308BD6F0F00200D
:1044D400A803002008B50348034A0021121A02F079
:1044E40049FD08BD88020020700F002070B500232C
:1044F40086B00122CDE90423134E144D01930F22FB
:10450400CDE902321249182303FB005506EBC0160D
:1045140004464FF4C07000FB04110E4B00954FF499
:10452400A072304600F086F8737B0B4AEE6023F0ED
:10453400040373734FF4046304FB033313442C75B3
:104544006B6006B070BD00BF28030020200F002060
:10455400001C0020976F0008C013002080B50020C5
:10456400A6B0FFF77BFF2C4B83F308882B4D2C4E12
:104574006B692C4F43F400736B610024F02385F8BE
:104584002230EC772C766C76AC7685F820406B6A1A
:1045940043F4E0236B62FDF715FEFDF7EBFB4FF0F0
:1045A400FF33AB62EB62FDF7EFFEFDF755FE40F221
:1045B4000113ADF8243006ABB360CDE91F44229457
:1045C40002F0A5FC0120FFF749FF0220164DFFF77A
:1045D40045FF00F033FD154BB561059301231449E4
:1045E4000094CDE903434FF480623B46CDE9014496
:1045F400284600F01FF86A7B064622F0040228468B
:104604006A7302F082FD2046FFF770FF3A46314696
:104614002846FDF7ABFC00BF001C002000ED00E0C5
:10462400200F0020A5440008A8030020727B000886
:10463400801D00202DE9FF410E9E0673042646735B
:104644000D9E867300F158050F46D61DC0E9165518
:104654000C9A002526F007064037C0E90655C0E944
:1046640019768560C573C56606F1400802920B9AF7
:10467400019288440A9A009242460446FDF744FC9B
:10468400044B65659B6803B11B6F2367404604B008
:10469400BDE8F081200F0020F0B587B00025059516
:1046A400109D04950F9D03950E9D0295DDE91276EC
:1046B4000D9D01950C9D00950446FFF7BBFFB6F1D7
:1046C400FF3F08BFB7F1FF3F05D056EA070305D106
:1046D400204600F033FC204607B0F0BD03493A46BB
:1046E400334604F1180000F02FFEF4E77B70000855
:1046F400F0B5224C224D87B02646AE4204F1300478
:104704000BD300F06BFC1D4C1E4F0A26AC4220D389
:1047140007B0BDE8F04000F075BC54F8043C0593C4
:1047240054F8103C049354F8143C039354F8183C84
:10473400029354F81C3C019354F8203C009354E930
:104744000A2354E90C01FFF775FF54F8303C5E6509
:10475400D2E7626A531C09D022EAE27282FB062382
:1047640052EA0301206803D100F0E8FB3034CDE7BE
:104774003946183000F0E8FDF8E700BFCC760008B1
:10478400CC7600087B7000082DE9F34104461746F7
:104794001E464FF01003EFF3118883F31288BFF322
:1047A4006F8FC368334A7BB180689168884219D09F
:1047B40057EA060318D188F31188BFF36F8F6FF09F
:1047C4000F0002B0BDE8F081916891F90E102161EB
:1047D4000133E3609368A36088F31188BFF36F8F9C
:1047E4000020EEE72169F2E791F90E1090F90E30FE
:1047F4009942A8BF19466FF07E029142B8BF114694
:104804008B422EDD02F0D1FB0546CDE900761A4835
:104814002246414600F01CFB0028E1D04FF0100373
:10482400EFF3118683F31288BFF36F8FA068D0B1C2
:10483400236821699C420AD04BB193F90E30994206
:10484400A8BF19466FF07E039942B8BF194602F01B
:10485400ACFB40B10848314600F05EFB6FF00A0043
:10486400AFE70025D1E7002DF4D186F31188BFF31B
:104874006F8FF3E7200F0020700F002038B5836896
:1048840004466BB3194A926893422CD1C368012B36
:1048940003D9013BC360002038BD4FF01003EFF390
:1048A400118583F31288BFF36F8F0169806802F06A
:1048B4007CFB204602F039FCA06058B190F90E2030
:1048C40022610022826702F020FC0948294600F098
:1048D40023FBE0E7E06085F31188BFF36F8FDAE72D
:1048E4006FF01500D8E74FF0FF30D5E7200F002018
:1048F400700F002038B504464FF01003EFF3118514
:1049040083F31288BFF36F8F02F00FFC48B10022CB
:10491400826702F0FAFB29460548BDE8384000F0FA
:10492400FBBAD4E902329A4218BF0133A360F2E71A
:10493400700F002013B54FF01004EFF3118184F3CE
:104944001288BFF36F8F846844B1013C846081F3A3
:104954001188BFF36F8F002002B010BD52EA030428
:1049640006D181F31188BFF36F8F6FF00F00F3E767
:10497400CDE900230246024800F06AFAECE700BFE2
:10498400700F00202DE9F04F4A4E85B004464FF0D9
:10499400FF384FF0FF394FF01003EFF3118783F323
:1049A4001288BFF36F8FD4F880508DB9022104F1BF
:1049B400980002F00EFB002843D10023CDE90089C2
:1049C400029304F1880239463B4800F043FCE2E7D5
:1049D400D4F884202B68C4F88030954208BFC4F80A
:1049E4008430D4F8983043F00203C4F89830EB686C
:1049F40023F0040343F00103EB606B6887F3118831
:104A0400BFF36F8F284698474FF01003EFF3118BD5
:104A140083F31288BFF36F8FEB68990723F00102C9
:104A240019D4EA60D4F8983023F00203C4F898301B
:104A34008BF31188BFF36F8FDB05ACD400F00AFB56
:104A4400A9E704F1900500220121284602F09FFB0A
:104A54000028F8D1B1E7306823F00303EB600028A5
:104A6400E0D00027D0F800A03B460028DAD0426806
:104A7400954201460CD101689FB972683160824247
:104A840000D1716040F8083BFFF734FF394600233A
:104A9400BAF1000F0BD0DAF8002050460F469246C8
:104AA400E3E739607268824208BF7760EAE75246FA
:104AB400F3E700BF440F0020700F0020F8B5C3686F
:104AC4009A0704460F46C3F340062CD45B071AD456
:104AD4000B680BB983680B60E368DD0744BFA36808
:104AE4003B603D684CBF02260126002D3AD01F4B87
:104AF4009B68AB420AD0D5F89830D807C3F380023C
:104B040014D46FF0120600233B6025E002F036FA5D
:104B1400D5F898300028F0D1D907C3F3C002F0D5F6
:104B240052B15B0708D46FF00F06ECE7002AFAD104
:104B3400C3F3C003002BF6D100232360D5F88430DF
:104B440063B9C5E92044284602F04EFAE36843F00D
:104B54000403E3603B68A3603046F8BD1C60C5F8FD
:104B64008440F0E76FF01506CDE700BF200F00206A
:104B7400F0B589B004460020C4E920000E9D04F17C
:104B84008800C4E9220004F19000C4E924001DB3A4
:104B94002879002840F2011008BF0120C4F89800C9
:104BA40000204FF0FF364FF0FF37CDE90330CDE959
:104BB4000100CDE90667094B00942046FFF76CFD20
:104BC40025B1296811B1204602F0DEF9204609B06A
:104BD400BDE8F04002F0DBB90120DFE789490008B5
:104BE40038B5074D2C6854B1FEF794FC054B0444CA
:104BF4001C6128680021BDE8384002F001BB38BDC3
:104C0400540F0020200F002038B50D4D2B4653F8CB
:104C14001C4F9C4200D004B9EC68AB6838B95A7B8D
:104C2400D20604D1A26912B9DA897F2A05D89C4236
:104C340002D02046FFF7D4FF2346AB6138BD00BF46
:104C4400200F002070B590F90D20437B002A014607
:104C540004DA03F07F03437302F0FBF94B7B154A3C
:104C640063F07F0310464B7350F81C3F146A834271
:104C740008BF002323B9C1E90004216011620CE0DC
:104C840091F90E5093F90E60B5420ED0AE420CDD90
:104C94005868C1E90030016059609068431A58426D
:104CA400BDE870405841FFF7AFBF9C42E3D01B689A
:104CB400E0E700BF200F002070B490F90D30427B74
:104CC400002B29DBD30627D183692BBB134962F060
:104CD4007F0242730A4652F81C4F944218BF23467F
:104CE4000C6A23B9C0E90024206008620CE090F942
:104CF4000E5093F90E60B5420AD0AE4208DD5A68F0
:104D0400C0E900321060586070BC0020FFF77CBF1F
:104D1400A342E7D01B68E4E770BC7047200F002073
:104D240008B590F90D20437B002A014604DA03F00C
:104D34007F03437302F08DF9044B9868431A584279
:104D44005841BDE80840FFF75FBF00BF200F0020B7
:104D540070B515461C46064602F0AFF9B4F1FF3FA4
:104D640008BFB5F1FF3F08D02A46234606F11800D4
:104D74000249BDE8704000F0E7BA70BD7B700008DE
:104D840010B54FF01003EFF3118483F31288BFF3CF
:104D94006F8F0A23002800FB03F302DD022BB8BF48
:104DA4000223074A0020106106480360064B9068FE
:104DB4001960FFF715FF84F31188BFF36F8F10BDDF
:104DC400200F0020540F0020500F002038B54FF062
:104DD4001003EFF3118583F31288BFF36F8F174B22
:104DE400174A9C6811688C4207D12046FFF7F8FEE9
:104DF40085F31188BFF36F8F38BD00211160114A0C
:104E04001268C2B1E2897F2A15D8627BD20612D118
:104E14000D4A94F90E10126891420CDB0B4A94422D
:104E240009D01A69824203DC2046FFF70BFFDCE756
:104E3400121A1A61DCE70022FBE700BF200F0020F2
:104E44004C0F0020540F0020500F00202803002096
:104E540070B50C480C4D86682E600C461146DDE991
:104E640004234FF01006EFF3118586F31288BFF385
:104E74006F8F8068FFF76CFF2046BDE87040FCF739
:104E8400EFBF00BF200F00204C0F0020F8B50446F0
:104E94004FF01003EFF3118683F31288BFF36F8F83
:104EA400437BDA0649B219D18569BDB903F07F03A2
:104EB400437302F0CEF8437B164A817363F07F0399
:104EC4004373134653F81C0F984218BF0546106AE3
:104ED4005DB9C4E900300460146211E0A1730020DC
:104EE40086F31188BFF36F8FF8BD95F90E70B94240
:104EF4000BD08F4209DD6B68C4E900531C606C6001
:104F04000120FFF781FE0120EAE7A842E1D02D68E5
:104F1400DEE700BF200F002049B9EFF3058030B968
:104F2400054B9A699B689A4201D0FCF799BF81F3BB
:104F34001188BFF36F8F7047200F002010B54FF01A
:104F44001002EFF3118482F31288BFF36F8F427B58
:104F5400510704D484F31188BFF36F8F10BD22F07E
:104F640004024273FFF7A8FE21460248BDE8104040
:104F7400FFF7D2BF700F002070B50446183002F05E
:104F840029F94FF01003EFF3118683F31288BFF36E
:104F94006F8F94F90D20637B002A05DA03F07F03F9
:104FA4006373204602F055F80B4D637BA86843F009
:104FB40010036373031B58425841FFF725FE86F321
:104FC4001188BFF36F8FAB68A34203D1BDE8704073
:104FD40002F0D3B870BD00BF200F00204FF01003C3
:104FE400EFF3118183F31288BFF36F8F044B9A6838
:104FF400D37B013BD37381F31188BFF36F8F704769
:10500400200F002010B54FF01003EFF3118483F349
:105014001288BFF36F8F084B9A68D37B0133D37325
:105024000020FFF7F1FD84F31188BFF36F8FBDE813
:10503400104002F0A2B800BF200F0020044B002152
:1050440003F11C02C3E907220846FFF799BE00BF1B
:10505400200F0020F8B54FF01003EFF3118583F310
:105064001288BFF36F8F19498868437B03F07F036D
:10507400437301F0EEFF8B685A7B084662F07F02AF
:105084005A7350F81C2F0C6A824208BF002222B9BE
:10509400C3E9000423600B620CE093F90E6092F9FB
:1050A4000E70BE420ED0B7420CDD5168C3E9002138
:1050B4000B6053600120FFF7A7FD2846BDE8F840C8
:1050C400FCF7CEBEA242E3D01268E0E7200F002036
:1050D40050EA01032DE9F04105460E4603D1FFF7DE
:1050E400B9FF00202CE0831C71F1FF332ADB02F0AE
:1050F400A3F844194FF01003EFF3118883F31288D7
:10510400BFF36F8F114F124BB8681860FFF708FE9A
:10511400B86810492A463346183000F015F9BA68C1
:10512400537B43F0100353734046FCF799FE02F09F
:1051340083F8201A63EB0303012873F10003D0DB27
:10514400BDE8F0816FF00104241AD3E7200F00209A
:105154004C0F00207B700008B1F1FF3F08BFB0F195
:10516400FF3F08B506D1074B9868FFF705FF4FF0DE
:10517400FF3008BDFFF7ACFF0A220023C117FBF77D
:1051840007F8F6E7200F0020014B9868704700BF2E
:10519400200F00202DE9F04104464FF01003EFF3F7
:1051A400118683F31288BFF36F8F037BD9070BD566
:1051B40086F31188BFF36F8F404080F311884FF05E
:1051C400040002DFBDE8F081437B1A0704D586F3AF
:1051D4001188BFF36F8FF5E723F0200242F0080136
:1051E400D20920D14173A36813B1204601F039FFDD
:1051F40004F1180001F0EEFF04F158074FF0000825
:10520400A56DBD4200D0B5B90120FFF7FDFC104BE0
:105214009B68A342DBD1EFF30583002BD7D1304643
:10522400FCF71EFED3E703F05F0343F00803437368
:1052340001F00FFFD7E7284601F013FF05F118002E
:1052440001F0C8FFC5F878802846FFF735FDD7E799
:10525400200F0020D3B5DDE90667089CCDE900677F
:10526400FFF7F6FD1CB1034B9B685B69236002B03A
:10527400D0BD00BF200F002008B50648064A0749E4
:10528400121A01F079FEBDE80840054A05490648AE
:1052940001F072BE0000002088020020C47B0008D8
:1052A40000000000C47B000800000020034B1B68C2
:1052B4000BB9FEF72FB90020704700BF580F00202C
:1052C40010B5114B1C689C420AD1FFF7EFFF6FF039
:1052D40000400E4B1B6913B19842A8BF184610BD7D
:1052E400FFF7E4FF002CF2D0D4E904321B1A62EB7E
:1052F400E072B3F1004F72F10001E8DA002AACBFAA
:1053040018460020E5E700BF70010020200F0020B0
:1053140030B570B10B4B5B6898420AD0036843B157
:10532400D3E90421D0E90445121941EB0501C3E98D
:105334000421D0E9003213605A600023C0E900332D
:1053440030BD00BF70010020B3F1FF3F08BFB2F1D0
:10535400FF3FF8B504461D46164661D081604FF004
:105364001003EFF3118783F31288BFF36F8F0132B9
:1053740075F1FF3324DA3049D1E900206FF00103DD
:105384009B1A4FF0FF3262EB00009E1B60EB05009E
:10539400012E70F1000301DA01260020C4E9046043
:1053A400264ED6F800C07568B44508BF4FF0000C0F
:1053B400BCF1000F0DD1C4E900652C6074601CE0E1
:1053C400FFF774FF013645F10005361845EBE07030
:1053D400E4E7DCE90420D4E90431934271EB000EE4
:1053E4001FDAD21ADCF8043060EB0100CCE90420A7
:1053F400C4E900C31C60CCF804403368B3420BD04A
:105404009C4209D1FFF75CFF18B10D4B1B69834225
:1054140002D00021FEF70EF887F31188BFF36F8FD7
:10542400F8BD9B1A61EB0001AC45C4E90431C2D05C
:10543400DCF800C0BCE700BF280400207001002095
:10544400200F00202DE9F8430446FFF7BFFC4FF07E
:105454001003EFF3118683F31288BFF36F8F234F8A
:10546400DFF88C80D8F80000224A3C604045D2E93D
:10547400003E4FEAE4710BD050B1D0E9045CAC4279
:1054840071EB0C0916DA2D1B6CEB010CC0E9045C02
:10549400E3184EEB01010024C2E900313C60FFF740
:1054A4000FFF2146FDF7C6FF86F31188BFF36F8F08
:1054B400BDE8F883EB184EEBE571C2E90031002238
:1054C4000023C0E90423FFF723FF86F31188BFF309
:1054D4006F8F836898474FF01003EFF3118683F3BF
:1054E4001288BFF36F8F3C68641BBBE7580F002022
:1054F400700100202804002010B54FF01003EFF3D2
:10550400118483F31288BFF36F8FFFF7CFFE064A2F
:105514000346D2E90001181841EBE37184F31188C2
:10552400BFF36F8F10BD00BF2804002038B50446B8
:1055340078B1FEF70DF805460648074AA4FB0001BA
:105544000023FAF725FE0446FEF702F8431BA342A4
:10555400FAD338BD00A24A0440420F00014800F0CB
:1055640020B800BF777B00081FB5094B029302AB3C
:1055740000240093074908488DF80C404FF0FF338E
:105584004FF48062FFF7F4FA204604B010BD00BF68
:10559400B97B0008C021002030040020704700209F
:1055A40070470FB407B504A951F8040B0191FAF739
:1055B4008FFF03B05DF804EB04B07047044608B5F0
:1055C400084611461A46A047FFF7DEFDFCF72EFEFB
:1055D4002DE9F84F9A46D3786F2B80460F4615462F
:1055E400A3F1410B29D024D8582B0CBF10260A262E
:1055F400DDF828903246002340463946FAF7C8FDC4
:10560400092AD4B21ED83034B045E4B277F1000789
:1056140009F8014D01D3D14511D82B789B0605D546
:10562400082E15D1AB7843F00803AB704846BDE8AB
:10563400F88F03F0F703702BD7E70826D8E78046E6
:105644000F46D7E7BBF1190F94BF37345734DBE764
:10565400102EEBD1AB7843F01003E6E72DE9F041CF
:105664000746884615461E461446B44205D30EB175
:10567400601B08E02378002BFAD014F8010B414694
:10568400B8470028F1DABDE8F081F0B5C66845688E
:10569400C369AF1B04464069BB4298BFFF1AA5EB20
:1056A4000000944698BFF6181A1AD81B2368AD1B3D
:1056B40062452B4428BF62460B606368904228BF52
:1056C400104603446360F0BDD0E90123D21A8A4234
:1056D4000CD31944C368C269C0E90111C91A8A42CA
:1056E40001D9002070471344C360FAE76FF0150036
:1056F40070472DE9F34180460E46154600272A4699
:1057040001A94046FFF7C1FF31460446024601980D
:1057140000F007FA2D1B2744264401D0002CEED1BB
:1057240039464046FFF7D0FF384602B0BDE8F08165
:10573400F0B5044686690569C069A368AF1BB84221
:10574400944698BF3618A3EB05022368A5EB06051B
:1057540098BF3F1A2B446245A0EB070028BF62465E
:105764000B602369904228BF104603442361F0BDB7
:10577400D0E90423D21A8A420CD31944D0E9063260
:10578400C0E90411C91A8A4201D9002070471344A0
:105794008361FAE76FF0150070472DE9F341804605
:1057A4000D4616460027324601A94046FFF7C0FFC2
:1057B40004462DB102460199284600F0B2F9254469
:1057C400361B274401D0002CEDD139464046FFF763
:1057D400CFFF384602B0BDE8F081704782B00A219D
:1057E4000190019820EAE07080FB010102B0FFF70C
:1057F400B3BC002070472DE9F84306460F46904697
:10580400994604254B46424639463046FCF7C8FFC4
:1058140010F10B0F044603D1FFF71CFC013DF1D13D
:105824002046BDE8F883006840B150F8043C5B684A
:105834008B42A0F1040001D04068F5E7704700688E
:1058440050B150F8043C5B685B689B788B42A0F1D4
:10585400040001D04068F3E7704730B5006888B1B0
:1058640050F8043C5B681A6A1D7F04380023043A2C
:10587400DCB2A54201D84068F1E7013312F83340A5
:105884008C42F5D130BD08B5FBF7F2FE28B1406873
:1058940010F1100F14BF0020012008BD4B1CDBB217
:1058A4008170817680F82530C37600F8061C704735
:1058B40050E90231C06F18470369002283F82A2097
:1058C4007047036993F82A0008B193F828007047D9
:1058D4000369002283F82B207047036993F8290099
:1058E4007047036993F8282012B193F82A202AB943
:1058F40093F8290018B193F82B00704701207047E2
:10590400012070470369C3E9001270470229036943
:1059140007D004290AD001290DD15B6F1360002040
:10592400704793F87B30C3F34003F7E793F87B3079
:1059340003F00103F2E76FF0850070470020704721
:1059440010B503695A6F0A6093F878206AB1012A86
:105954000CBF022203224A7193F87920501E0328B7
:1059640005D8DFE800F0050505050122F3E700226C
:105974000A7193F87A30062B09D0072B09D0052B2E
:105984000CBF0023032300208B71C87110BD0123B9
:10599400F9E70223F7E708B5402903693ED013D895
:1059A400102931D006D801291ED008291FD06FF044
:1059B400120008BD2029FAD193F87C1001F0FB01F4
:1059C4004AB341F0040126E0B1F5807F2FD0B1F550
:1059D400007F35D08029EAD193F87C1001F0EF01E3
:1059E400CAB141F0100116E05A670020E1E793F8CC
:1059F4007C1001F0FE010AB141F0010183F87C1032
:105A04000121FCF7F7F8F0E793F87C1001F0FD01B1
:105A14000AB141F0020183F87C10F2E793F87C109C
:105A240001F0F701002AF6D041F00801F3E793F8FA
:105A34007C1001F0DF01002AEDD041F02001EAE7FB
:105A440093F87C1001F0BF01002AE4D041F040013A
:105A5400E1E770B504690546E06EFFF79EFEE36E6C
:105A64001A699968914204BF002284F8292094F8A5
:105A740080200646AAB15A685969DB69521A9B1AF2
:105A84003F2B0ED994F87E3043B194F87F1029B996
:105A94006B681B6A2246187BFCF7CEF8002384F857
:105AA4008030304670BD08B50122FFF7D2FF0138BF
:105AB40018BF4FF0FF3008BD01F041BA014600683D
:105AC40001F03DBA00210120FFF7F6BF08B5FCF74D
